:020000040800F2
:1000000008050020212000084507000847070008D0
:100010004B0700084F0700085307000800000000C6
:100020000000000000000000000000005907000868
:1000300057070008000000005B0700085D07000884
:100040006507000867070008690700086B070008D4
:100050006D0700086F0700087107000873070008A4
:100060007507000877070008790700087B07000874
:100070007D0700087F070008810700088307000844
:100080008507000887070008890700083B2000084B
:100090003B2000083B2000083B2000089307000895
:1000A0009507000897070008990700089B070008B4
:1000B0009D070008B3070008B5070008B707000848
:1000C000B9070008BB070008BD070008BF07000804
:1000D000C1070008C3070008C5070008C7070008D4
:1000E000C9070008CB070008CD070008CF070008A4
:1000F000D1070008D3070008D5070008D707000874
:10010000D9070008DB070008DD070008DF07000843
:10011000E1070008E3070008E5070008E707000813
:10012000E9070008EB070008ED070008EF070008E3
:10013000DFF80CD001F09CFF00480047BF02000828
:100140000805002070B504460D46E1B2054801F0EF
:1001500046FC00BF4021034801F098FC0028F9D07C
:10016000204670BD0038014001B5FE490098086086
:1001700000BFFC4800680028FBD108BD00B585B071
:10018000684601F0DAFDF8490398086005B000BD43
:1001900001B542F27472009901FB02F000E0401ECA
:1001A0000028FCD108BD1FB51C208DF80C000120D3
:1001B0008DF80D008DF80E008DF80F0003A801F0EA
:1001C000E8F80121084601F032FE4FF6FF70ADF865
:1001D00004004720ADF800000020ADF80600ADF89F
:1001E000020069464FF0804000F064FB0122114696
:1001F000900700F006FE00214FF0804000F0E6FD81
:100200001FBD10B54FF40070D84908801820C87081
:1002100003208870D64801F085F94FF48060D349F7
:1002200008800420C870D24801F07CF94FF4E13016
:10023000D049086000208880C880088188810C200F
:100240004881CD4801F0EDFA0121CB4801F05AFB7D
:1002500010BD10B50120C5490880032088704820D2
:10026000C870C34801F05EF94FF48070BF49088040
:10027000032088704820C870C04801F053F94FF43B
:100280000060BA490880032088701020C870B84800
:1002900001F048F90220B549088003208870102039
:1002A000C870B74801F03EF910BD10B501211D20FE
:1002B00001F0B0FD0121880301F0ACFD10BDFFF796
:1002C000F4FFFFF7C6FFFFF79CFFFFF76CFFAD4899
:1002D00000684FF47A72B0FBF2F1B1F1807F01D384
:1002E00001201DE021F07F40401E4FF0E0225061D0
:1002F00050170F22002807DA13071D0EA24B00F03B
:100300000F04241F1D5503E013071C0E9F4B1C54A4
:1003100000BF00204FF0E022906107201061002014
:1003200008B100BFFEE74FF4C870FFF731FFFFF7D9
:1003300025FF8D48016896A001F0ACFE4FF40061E6
:100340008B4801F09AF902218D4801F096F90021BD
:100350004FF0804000F0D0FF00214FF0804000F0CF
:1003600035FDB5E10121824801F06DF990B9012117
:10037000880700F02BFD00BF01217D4801F063F9E3
:100380000028F9D000214FF0804000F01FFD01202F
:100390008449087083480078012822D1800700F042
:1003A000CCFF8149086000214FF0804000F0A4FF9D
:1003B0007D4801687DA001F06DFE0020794908703C
:1003C0007948006842F6E06188420BD976480068B7
:1003D000B0F57A5F06D20120754908700020754992
:1003E00008707DE072480078012879D16E48006875
:1003F000642810D96C480068B0F5167F0BD2012034
:100400006D496C4A127841F822006A480078401C15
:100410006849087018E064480068B0F52F7F10D96B
:1004200061480068B0F5C86F0BD200216248614A8C
:10043000127840F822105F480078401C5D4908702F
:1004400002E000205A4908705A480078182847D11D
:1004500000205A4908701AE059485849097850F85C
:1004600021005549554A127851F82210884203D18B
:1004700001205449087005E00020524908701820F6
:100480004E4908704D480078401C4C4908704B4854
:1004900000781728E0DB00204649087044490870BE
:1004A0004848007801281BD14748007850B90120FE
:1004B00045490870C1022E4801F0E1F86420FFF7B9
:1004C00053FE0AE00020404908704FF400612848BC
:1004D00001F0D3F86420FFF747FE00BFFEE7FFE717
:1004E0004FF48071254801F0AEF868B90221244824
:1004F00001F0C5F800214FF0804000F067FC0021BA
:100500004FF0804000F0F8FED6E00121184801F0DD
:100510009AF890B90121880700F058FC00BF01212A
:10052000134801F090F80028F9D000214FF08040E6
:1005300000F04CFC01201B4908701A480078012883
:10054000E2D1800700F0F9FE1749086000214FF062
:10055000804000F0D1FE1448016814A001F09AFD1B
:10056000002033E0680000206C00002064000020C0
:10057000000801409400002000380140000C0140B8
:10058000001001408C00002018ED00E000E400E0C5
:10059000636C6F636B205379735469636B203D20E8
:1005A00025337500010000207400002025640A0036
:1005B0007100002003000020A40000207200002031
:1005C0000400002002000020700000205249087042
:1005D0005248006842F6E06188420BD94F480068F3
:1005E000B0F57A5F06D201204D49087000204D49D0
:1005F000087061E04A48007801285DD147480068EA
:10060000642810D945480068B0F5167F0BD2012147
:100610004548444A127840F8221042480078401C6D
:100620004049087018E03D480068B0F52F7F10D9A8
:100630003A480068B0F5C86F0BD200203A49394AF1
:10064000127841F8220037480078401C354908707C
:1006500002E00020324908703248007817282BD178
:1006600032A001F017FD00202E4908700CE02E4842
:100670002C4A127850F822102DA001F00BFD2948C9
:100680000078401C27490870264800781728EEDBC0
:1006900026A001F0FFFC00202149087021490870C4
:1006A0000221244800F0E9FF00BF4FF48071224886
:1006B00000F0C9FF0028F8D04FF480711E4800F008
:1006C000C2FF00283FF421AF02211A4800F0D5FFF5
:1006D00048E601B5009901EB8101480000E0401EA9
:1006E0000028FCD108BD01B581B00020009013495D
:1006F00001984843009002E00098401E0090009846
:100700000028F9D10CBD0E48006820B10C480068E3
:10071000401E0B4908607047010000207400002053
:100720007100002073000020040000200A0D00006A
:100730002564000000100140000C014080FC0A000C
:1007400068000020704700BFFEE700BFFEE700BF63
:10075000FEE700BFFEE770477047704710B5FFF730
:10076000D2FF10BD704770477047704770477047A1
:1007700070477047704770477047704770477047C1
:1007800070477047704770477047704770477047B1
:1007900070477047704770477047704710B5012128
:1007A000880700F0DCFD18B10121880700F0E8FDA2
:1007B00010BD70477047704770477047704770476B
:1007C0007047704770477047704770477047704771
:1007D0007047704770477047704770477047704761
:1007E0007047704770477047704770477047704751
:1007F00010B50446FE48844208D10121C01401F01E
:1008000023FB0021E01401F01FFB52E0B4F1804F04
:1008100008D10121084601F024FB0021012001F04C
:1008200020FB46E0F348844208D10121022001F078
:1008300018FB0021022001F014FB3AE0EE4884424C
:1008400008D10121042001F00CFB0021042001F05B
:1008500008FB2EE0E948844208D10121082001F07C
:1008600000FB0021082001F0FCFA22E0E448844269
:1008700008D10121102001F0F4FA0021102001F02C
:10088000F0FA16E0DF48844208D10121202001F06F
:10089000E8FA0021202001F0E4FA0AE0DA48844274
:1008A00007D10121401401F0CFFA0021601401F0BA
:1008B000CBFA10BD028802F08F020280CA884B88F2
:1008C0001A4303881A4302808A8882850A8802852F
:1008D000C74A904202D0CC4A904201D10A7A02869D
:1008E00001228282704770B5002400220023058C0B
:1008F0004FF6FE7635400584028C8388048B4FF6D4
:100900008C752C400D882C43751E2A400D892A4376
:100910004D882A43B64DA84202D0BB4DA84213D100
:100920004FF6F7752A404D892A434FF6FB752A404A
:100930008D882A4347F6FF652B4047F6FF552B402D
:100940008D892B43CD892B4383800483CD88858675
:10095000028470BD70B5002400220023058C4FF680
:10096000EF7635400584028C8388048B48F6FF457A
:100970002C400D884FF6FF7606EA05252C434FF6EE
:10098000DF752A400D8906EA05152A434D8806EAD7
:1009900005152A43964DA84202D09B4DA8421DD171
:1009A0004FF67F752A404D894FF6FF7606EA05150A
:1009B0002A434FF6BF752A408D8806EA05152A435B
:1009C00047F6FF352B4047F2FF752B408D8906EA2D
:1009D00085052B43CD8906EA85052B438380048357
:1009E000CD880587028470BD70B5002400220023E5
:1009F000058C4FF6FF6635400584028C8388848B16
:100A00004FF68C752C400D882C434FF6FF552A402D
:100A10000D894FF6FF7606EA05252A434D8806EA3A
:100A200005252A43724DA84202D0774DA8421DD118
:100A30004FF2FF752A404D894FF6FF7606EA0525ED
:100A40002A434FF6FF352A408D8806EA05252A43BA
:100A500046F6FF752B4045F6FF752B408D8906EA5B
:100A600005152B43CD8906EA05152B438380848326
:100A7000CD888587028470BD70B5002400220023D4
:100A8000058C4EF6FF7635400584028C8388848B76
:100A900048F6FF452C400D884FF6FF7606EA0525FF
:100AA0002C434DF6FF752A400D8906EA05352A4389
:100AB0004D8806EA05352A434D4DA84202D0524DD5
:100AC000A84207D1C3F30D038D894FF6FF7606EADE
:100AD00085152B4383808483CD88A0F84050028401
:100AE00070BD828B4FF2FF331A408283828B4FF6A8
:100AF000FF7303EA01231A4382837047F0B50C4663
:100B00001546002100220026078C4EF6FF7C07EADE
:100B10000C070784818B028C4FF6FF7707EA0436B7
:100B200040F6FF4739404FF6FF7707EA052739437C
:100B30004FF6FF7707EA033739434DF6FF773A4020
:100B400046F480573A4381830284F0BD828B4FF68E
:100B5000F3731A408283828B0A4382837047F0B515
:100B60000C461546002100220026078C4FF6FF6C2C
:100B700007EA0C070784818B028C4FF6FF7707EAA0
:100B800004264FF60C7739404FF6FF7707EA031734
:100B90002F4339434FF6FF573A4046F480773A43A4
:100BA00081830284F0BD028B4FF2FF331A4002832F
:100BB000028B4FF6FF7303EA01231A430283704747
:100BC000F0B50C461546002100220026078C4FF692
:100BD000EF7C07EA0C070784018B028C4FF6FF7746
:100BE00007EA041640F6FF4739404FF6FF770DE05D
:100BF000002C01400004004000080040000C0040B0
:100C000000100040001400400034014007EA0337A0
:100C100039434FF6FF7707EA052739434FF6DF7769
:100C20003A4046F010073A4301830284F0BD028B3C
:100C30004FF6F3731A400283028B0A430283704714
:100C4000F0B50C46154600210022068C4FF6FE77C3
:100C50003E400684018B028C4FF60C7631407E1CA0
:100C600006EA03162E4331437E1E324044F001064D
:100C7000324301830284F0BD70B505460C462088DE
:100C800050B92389A28861882846FFF7D9FFE188F7
:100C90002846FFF7CCFF25E0208804280AD12389C5
:100CA000A28861882846FFF78BFFE1882846FFF776
:100CB0007AFF17E0208808280AD12389A288618852
:100CC0002846FFF74CFFE1882846FFF73FFF09E081
:100CD0002389A28861882846FFF710FFE18828460B
:100CE000FFF7FFFE70BD2DE9F04105460C460026DA
:100CF0000127608808B9022600E00026A0880128A4
:100D000001D1022700E001272088A0B92389A28809
:100D100061882846FFF794FFE1882846FFF787FFA0
:100D200023893A4631462846FFF74AFFE18828469C
:100D3000FFF739FF13E02389A28861882846FFF76F
:100D40003FFFE1882846FFF72EFF23893A463146C8
:100D50002846FFF775FFE1882846FFF768FFBDE8E2
:100D6000F0810A884B881A438B881A43CB881A4330
:100D70000B891A434B891A438B891A43A0F84420E4
:100D800070474FF6FF71818000210180C180418052
:100D9000017270470021018041808180C180018102
:100DA00041818181C1817047002101804180012101
:100DB00081800021C1800181704700210180418034
:100DC0008180C180018141818181704721B1028888
:100DD00042F00102028004E0028840F2FE331A4031
:100DE0000280704731B1B0F8442042F40042A0F8CC
:100DF000442005E0B0F84420C2F30E02A0F84420DD
:100E000070471AB183890B43838102E083898B4346
:100E1000838170478182704741EA0203A0F848301D
:100E200070471AB183890B43838102E083898B4326
:100E30008381704701894FF6F87211400181704734
:100E40000A46002101894FF68F7319401143018131
:100E5000704730B504460D4629462046FFF7F0FF9F
:100E6000208940F00700208130BD2DE9F041044683
:100E70000D4616461F46602D06D13B4601223146DF
:100E80002046FFF79DFE05E03B4601223146204605
:100E9000FFF7D6FE29462046FFF7D2FF208940F013
:100EA00007002081BDE8F08130B50C4600210189A2
:100EB000C9B24FF6FF7505EA0325154325432943BB
:100EC000018130BD2DE9F04105460E461746984692
:100ED000002443463A4631462846FFF7E5FF2C8971
:100EE0004FF6F870044044F007044FF68F7004404A
:100EF00044F070042C81BDE8F081F0B504460D4645
:100F000016461F463B46324629462046FFF7CCFF91
:100F1000208940F480402081F0BD018582827047A5
:100F20000A460021018840F28F33194011430180A5
:100F30007047F0B50C4615461E46002100220023DE
:100F40000189028B038C4FF6F877394021434FF625
:100F5000FC473A4040F201173A434FF6DD773B40F9
:100F60004FF6FF7707EA06172F433B4301810283C1
:100F70000384F0BD0A460021018B4FF68F731940A0
:100F80001143018370470A460021018B48F6FF7325
:100F900019404FF6FF7303EA022319430183704798
:100FA0000A460021818B4FF68F73194011438183CC
:100FB00070470A460021818B48F6FF7319404FF6AF
:100FC000FF7303EA022319438183704721B102882A
:100FD00042F08002028004E0028840F27F331A402F
:100FE0000280704721B1828842F00402828004E0CE
:100FF00082884FF6FB731A408280704721B1828845
:1010000042F00802828004E082884FF6F7731A40AB
:101010008280704721B1828842F00102828004E020
:1010200082884FF6FE731A40828070470A4600217C
:10103000018B4FF6F77319401143018370470A463D
:101040000021018B4FF2FF7319404FF6FF7303EA43
:1010500002231943018370470A460021818B4FF612
:10106000F77319401143818370470A460021818B31
:101070004FF2FF7319404FF6FF7303EA022319433F
:10108000818370470A460021018B4FF6FB7319409C
:101090001143018370470A460021018B4FF6FF334D
:1010A00019404FF6FF7303EA022319430183704787
:1010B0000A460021818B4FF6FB731940114381834F
:1010C00070470A460021818B4FF6FF3319404FF6D7
:1010D000FF7303EA02231943818370470A46002104
:1010E000018B4FF67F7319401143018370470A4605
:1010F0000021018BC1F30E014FF6FF7303EA0223B7
:101100001943018370470A460021818B4FF67F7394
:1011100019401143818370470A460021818BC1F336
:101120000E014FF6FF7303EA0223194381837047D0
:101130000A460021018C4FF6FD73194011430184CA
:1011400070470A460021018C4FF6F773194011438E
:10115000018470470A460021018C4FF6DF73194065
:101160004FF6FF7303EA02131943018470470A46DE
:101170000021018C4FF67F7319404FF6FF7303EA8D
:1011800002131943018470470A460021018C4FF66F
:10119000FF5319404FF6FF7303EA022319430184FA
:1011A00070470A460021018C4FF2FF7319404FF639
:1011B000FF7303EA02231943018470470A460021A2
:1011C000018C4DF6FF7319404FF6FF7303EA0233AB
:1011D00019430184704730B5002301248C40A3B229
:1011E000048C9C430484048C02FA01F5ADB22C43B8
:1011F000048430BD30B5002304248C40A3B2048C99
:101200009C430484048C02FA01F5ADB22C4304849F
:1012100030BD70B503460020002418461830012563
:101220008D40ACB21D8CA5431D8409B108290AD19B
:1012300000EB610005684FF68F7635400560056864
:10124000154305600FE00D1FC5F34E0528440568E2
:1012500048F6FF763540056005684FF6FF7606EAEA
:1012600002263543056070BD21B1028842F00202BA
:10127000028004E0028840F2FD331A400280704789
:1012800021B1028842F00402028004E0028840F2A8
:10129000FB331A400280704721B1828842F08002FD
:1012A000828004E082884FF67F731A408280704704
:1012B000028840F2F7331A40028002880A43028013
:1012C000704782884FF68F731A40828082880A4363
:1012D0008280704702894FF6F8731A4002810289B2
:1012E0000A430281704702894FF67F731A400281D8
:1012F00002890A4302817047818470478185704763
:10130000818670470187704781877047A0F8401039
:1013100070470288D2B2028002880A430280704776
:101320000146888E70470146088F70470146888FB6
:1013300070470146B1F8400070470146888C7047FD
:101340000146088D704702460020138A0B4201D0E7
:10135000012000E000207047CA430282704730B588
:101360000246002000230024158A05EA010395891E
:1013700005EA010413B10CB1012000E0002030BDEA
:10138000CA4302827047000031490143314A11606B
:10139000704770B5002100230F22C4780CB32D4C88
:1013A000246804F4E064C4F5E064210AC1F1040394
:1013B000CA40447804FA03F18478144021430901B7
:1013C000254C0678A155047804F01F050124AC4093
:1013D00005786D114FF0E02606EB8505C5F8004154
:1013E00009E0047804F01F050124AC401B4D067889
:1013F000761145F8264070BD194A0A400243154B44
:101400001B1F1A60704739B1124A121D126802433D
:10141000104B1B1D1A6006E00E4A121D1268824313
:101420000C4B1B1D1A607047042808D14FF0E021B7
:10143000096941F004014FF0E022116107E04FF02B
:10144000E021096921F004014FF0E02211617047A9
:101450000000FA050CED00E000E400E080E100E0AF
:1014600080FFFF1F10B50446C248844208D1012105
:10147000042000F0E9FC0021042000F0E5FC46E037
:10148000BD48844208D10121082000F0DDFC002184
:10149000082000F0D9FC3AE0B848844208D1012184
:1014A000102000F0D1FC0021102000F0CDFC2EE037
:1014B000B348844208D10121202000F0C5FC00215E
:1014C000202000F0C1FC22E0AE48844208D1012176
:1014D000402000F0B9FC0021402000F0B5FC16E0EF
:1014E000A948844208D10121802000F0ADFC0021F0
:1014F000802000F0A9FC0AE0A448844207D1012121
:10150000801500F0A1FC0021A01500F09DFC10BD8D
:1015100010B50121084600F097FC0021012000F0E1
:1015200093FC10BD2DE9F041024600250026002065
:1015300000230024002791F803C00CF00F0591F858
:1015400003C01CF0100F03D091F802C04CEA05054F
:1015500091F800C0BCF1000F31D0146800202BE0DE
:101560004FF0010C0CFA00F3B1F800C00CEA0306CE
:101570009E4220D183004FF00F0C0CFA03F7BC43BE
:1015800005FA03FC4CEA040491F803C0BCF1280FEF
:1015900006D14FF0010C0CFA00FCC2F814C00AE0AE
:1015A00091F803C0BCF1480F05D14FF0010C0CFAC3
:1015B00000FCC2F810C0401C0828D1D31460B1F858
:1015C00000C0BCF1FF0F34DD546800202EE000F1B4
:1015D000080C4FF0010808FA0CF3B1F800C00CEA4F
:1015E00003069E4221D183004FF00F0C0CFA03F743
:1015F000BC4305FA03FC4CEA040491F803C0BCF1B7
:10160000280F05D100F1080C08FA0CF8C2F8148074
:1016100091F803C0BCF1480F07D100F1080C4FF05E
:10162000010808FA0CF8C2F81080401C0828CED334
:101630005460BDE8F0814FF6FF7101800221817096
:101640000421C17070470246002093680B4201D00C
:10165000012000E0002070470146886880B2704792
:1016600002460020D3680B4201D0012000E0002098
:1016700070470146C86880B2704701617047416198
:1016800070470AB1016100E041617047C160704775
:101690004FF480320A43826181618261826982698A
:1016A0007047024600203A4B18684FF68073184086
:1016B00040EA02100843364B186070473549C8614C
:1016C0007047F0B50A460023002400210025304E63
:1016D0007168C0F3034583B200F44016B6F5401FAD
:1016E00008D121F070612A4E766826F07066284F86
:1016F0007E6012E000F48016B6F5801F06D1032646
:1017000006FA05F4A14341F0706106E0460D36018A
:1017100003FA06F6B14341F0706122B1460D36017D
:1017200003FA06F631431A4E7160F0BD30B500225F
:101730008B071C0F0F2303FA04F2154B08338C1090
:1017400053F824309343124C08348D1044F825305C
:1017500023468C1053F824308C07240F00FA04F42D
:1017600023430B4C08348D1044F8253030BD0A4912
:101770000860704700080140000C01400010014063
:101780000014014000180140001C014000200140ED
:101790000000014000002042DC00204210B5044659
:1017A000E248844209D10121880300F04DFB002169
:1017B0004FF4804000F048FB32E0DD48844209D11C
:1017C0000121480400F04DFB00214FF4003000F0EF
:1017D00048FB25E0D748844209D10121880400F064
:1017E00040FB00214FF4802000F03BFB18E0D24882
:1017F000844209D10121C80400F033FB00214FF4D9
:10180000002000F02EFB0BE0CC48844208D10121DF
:10181000080500F026FB00214FF4801000F021FBAA
:1018200010BD2DE9F04786B005460E460024A246BD
:1018300000BF00BF0027B08900B100BF2F462C8A2F
:101840004CF6FF700440F08804432C82AC894EF6BD
:10185000F3100440B0883189084371890843044378
:10186000AC81AC8A4FF6FF400440B0890443AC829F
:1018700001A800F062FAAD48874202D1DDF810A05D
:1018800001E0DDF80CA00AEBCA0000EB0A10316899
:101890008900B0FBF1F86420B8FBF0F004012009E6
:1018A000642101FB1089322000EB0910B0FBF1F03C
:1018B00000F00F0004432C8106B0BDE8F0874FF420
:1018C0001651016000218180C18001810C2141817C
:1018D00000218181704710B502460020108A4FF226
:1018E000FF0318400B884C8823438C882343CC8803
:1018F00023431843108210BD002101804180818064
:10190000C180704721B1828942F40052828104E093
:1019100082894DF6FF731A4082817047F0B5034605
:101920000024002600250020A1F510676A3F00D1A1
:1019300000BF1846C1F3421401F01F06012707FA41
:1019400006F5012C01D10C3004E0022C01D110303D
:1019500000E014301AB107682F43076002E00768FF
:10196000AF430760F0BD1AB1838A0B43838202E064
:10197000838A8B4383827047028A4FF6F0731A4042
:101980000282028A0A430282704782894FF2FF7301
:101990001A40828182890A438281704721B18289FB
:1019A00042F00202828104E082894FF6FD731A4000
:1019B00082817047028A4FF6DF731A400282028AE0
:1019C0000A430282704721B1028A42F480420282B5
:1019D00004E0028A4BF6FF731A4002827047C1F39B
:1019E00008028280704701468888C0F3080070476B
:1019F000818941F0010181817047028BD2B202835B
:101A0000028B42EA012202837047028B02F47F427A
:101A10000283028B0A430283704721B1828A42F01B
:101A20002002828204E0828A4FF6DF731A408282AB
:101A3000704721B1828A42F01002828204E0828AD9
:101A40004FF6EF731A408282704721B1828A42F0CA
:101A50000802828204E0828A4FF6F7731A4082827B
:101A60007047828A4FF6FB731A408282828A0A4349
:101A70008282704721B1828A42F00202828204E0AF
:101A8000828A4FF6FD731A40828270470246002018
:101A9000B1F5007F00D100BF13880B4201D00120B7
:101AA00000E00020704701F40072B2F5007F00D121
:101AB00000BFCA430280704770B50246002400236D
:101AC00000250020A1F510666A3E00D100BFC1F3D9
:101AD000421501F01F03012606FA03F3012D02D17E
:101AE0009689334006E0022D02D1168A334001E088
:101AF000968A33400C12012606FA04F41688344004
:101B000013B10CB1012000E0002070BD10B500221F
:101B10000023A1F510646A3C00D100BF0A12012421
:101B20009440A3B2DC43048010BD000000380140A3
:101B30000044004000480040004C0040005000407D
:101B4000DD48006840F00100DB4908600846406855
:101B5000DA490840D849486008460068D849084032
:101B6000D54908600846006820F4802008600846CF
:101B7000406820F4FE0048604FF41F008860704702
:101B8000CD49096821F48031CB4A116011460968BA
:101B900021F480211160B0F5803F03D0B0F5802F93
:101BA0000ED106E0C449096841F48031C24A11608F
:101BB00007E0C149096841F4A021BF4A116000E073
:101BC00000BF00BF704710B501460022002300206F
:101BD0004A11012A02D1B84C236806E0022A02D138
:101BE000B54C236A01E0B44C636A01F01F02012482
:101BF00094401C4201D0012000E0002010BD38B507
:101C0000002000900024002500BF3120FFF7DBFFFB
:101C100005460098401C00900098B0F5A06F01D0D8
:101C2000002DF2D03120FFF7CEFF08B1012400E0F3
:101C30000024204638BD014600209F4A106820F04D
:101C4000F80040EAC100106070479E490860704784
:101C500002460020984B586820F47C1042EA0103A9
:101C60001843954B5860704796490866704701467F
:101C70000020914A506820F00300084350607047EC
:101C80008D48406800F00C007047014600208A4AE9
:101C9000506820F0F0000843506070470146002073
:101CA000854A506820F4E060084350607047014660
:101CB0000020814A506820F4605040EAC100506022
:101CC000704729B17C4A527A02437B4B5A7204E036
:101CD000794A527A8243784B5A7270477A4908603F
:101CE000704701460020744A506820F44040084381
:101CF000506070470021754A11706F4A82F82010B9
:101D0000012802D0042808D103E001216F4A117094
:101D100004E005216D4A117000E000BF00BF70476C
:101D20006B49086070476449096A0143624A11625D
:101D30007047674944390860704730B50021002278
:101D4000002400235C4D6D6805F00C0121B10429CD
:101D500005D0082923D105E05E4D056022E05D4DE8
:101D600005601FE0544D6D6805F47012524D6D68AA
:101D700005F48034022505EB92421CB9564D5543BB
:101D800005600BE04C4D6D6815F4003F03D0524DDB
:101D90005543056002E04F4D5543056002E04D4D4F
:101DA000056000BF00BF444D6D6805F0F0010909F2
:101DB0004A4D6B5C0568DD4045603F4D6D6805F43C
:101DC000E061090A454D6B5C4568DD4085603A4D30
:101DD0006D6805F46051C90A404D6B5C4568DD4093
:101DE000C560354D6D6805F44041890B3C4D6B5C19
:101DF000C568B5FBF3F5056130BD29B12E4A5269BE
:101E000002432D4B5A6104E02B4A526982432A4B0C
:101E10005A61704729B1284A92690243264B9A6158
:101E200004E0254A92698243234B9A61704729B1A5
:101E3000214AD2690243204BDA6104E01E4AD2698A
:101E400082431D4BDA61704729B11B4AD2680243B5
:101E5000194BDA6004E0184AD2688243164BDA6004
:101E6000704729B1144A12690243134B1A6104E006
:101E7000114A12698243104B1A6170471449403964
:101E8000086070470F49C86470470B49C8717047B4
:101E90000948406A40F0807007494862704701462F
:101EA0000020054A92680A4201D0012000E000208B
:101EB0007047014988727047001002400000FFF827
:101EC000FFFFF6FE00004242D800424220100240CE
:101ED0008004424200127A0000093D007800002090
:101EE000880000200CB50020019000904848006850
:101EF00040F480304649086000BF4548006800F45F
:101F0000003000900198401C0190009818B9019889
:101F1000B0F5A06FF1D13E48006810F4003F02D048
:101F20000120009001E0002000900098012843D19A
:101F30003848006840F010003649086008460068DC
:101F400020F0030008600846006840F002000860C6
:101F50002F4840682E494860084640684860084657
:101F6000406840F4806048600846406820F47C1077
:101F700048600846406840F4E81048600846006839
:101F800040F08070086000BF2148006810F0007FBA
:101F9000FAD01F48406820F003001D4948600846F9
:101FA000406840F00200486000BF1948406800F0F7
:101FB0000C000828F9D101E000BFFEE70CBD10B508
:101FC000FFF790FF10BD10B51148006840F0010008
:101FD0000F490860084640680F4908400C494860AE
:101FE000084600680D49084009490860084600682D
:101FF00020F4802008600846406820F4FE00486015
:102000004FF41F008860FFF7DAFF10BD7047000033
:1020100000100240002002400000FFF8FFFFF6FE23
:102020000648804706480047FEE7FEE7FEE7FEE772
:10203000FEE7FEE7FEE7FEE7FEE7FEE7C71F000854
:102040003101000830B50B46014600202022012452
:1020500009E021FA02F59D4205D303FA02F5491B76
:1020600004FA02F52844151EA2F10102F1DC30BD8C
:10207000064C074D06E0E06840F0010394E80700D5
:1020800098471034AC42F6D3FEF756F820240008E7
:10209000402400080FB4054B10B503A9044A029868
:1020A00000F018F810BC5DF814FB000045010008B2
:1020B0009000002002E008C8121F08C1002AFAD1CF
:1020C00070477047002001E001C1121F002AFBD1B8
:1020D000704700002DE9FF4F8BB08846054600266B
:1020E00067E125287AD100246D1CB649A146A24695
:1020F00001222B78203B02FA03F0084202D004436D
:102100006D1CF6E728782A2810D06FF02F02287867
:10211000A0F13001092915D809EB890102EB410131
:1021200044F0020400EB01096D1CF0E758F8049B31
:10213000B9F1000F03DA44F40054C9F1000944F086
:1021400002046D1C28782E2817D115F8010F44F0D1
:1021500004042A280ED06FF02F022878A0F1300155
:1021600009290AD80AEB8A0102EB410100EB010AB6
:102170006D1CF2E758F804AB6D1C28786C280FD062
:1021800006DC4C2817D068280DD06A2814D104E04A
:10219000742810D07A280FD10DE044F400140AE01E
:1021A00044F4801401E044F440146978814202D17F
:1021B0006D1C04F580146D1C2878692866D007DC36
:1021C000002876D0632828D0642807D15EE005E097
:1021D0006E2808D073282AD075287AD0DDE90D1230
:1021E0009047761CE4E0C4F30250022809D003288B
:1021F0000DD0D8F8001004280DD00E6008F10408A6
:10220000D6E0D8F80010F217C1E90062F6E7D8F876
:1022100000100E80F2E70E70F0E718F8041B8DF83E
:10222000001000208DF80100EB46012003E058F873
:1022300004BB4FF0FF3061074FF0000701D40AE004
:102240007F1C57450DDA8742FADB1BF8071000297F
:10225000F6D106E07F1C8742FCDB1BF80710002943
:10226000F8D1DDE90D23A9EB07008146214600F0F6
:10227000BEF83044C61904E0DDE90D121BF8010B6D
:1022800090477F1EF8D2214648468CE058F8040B50
:10229000C4F302514FF00A0B032900D100B2042904
:1022A00000D140B2002806DAC0F100004FF02D0145
:1022B00004E082E00DE0210504D52B218DF82410E7
:1022C000012103E0E10710D02021F7E708AF0891D2
:1022D00014E058F8040BC4F302514FF00A0B032921
:1022E00000D180B2042900D1C0B20021EEE75946E6
:1022F000FFF7A8FE01F1300107F8011D0028F6D113
:10230000ADEB070000F1200B600702D524F4803408
:1023100001E04FF0010ADA4502DDAAEB0B0000E014
:102320000020824600EB0B0108980144A9EB010054
:102330000A90E00306D4DDE90D2321460A9800F057
:1023400056F80644002008E009A911F80900DDE963
:102350000D129047761C09F10100089981468842C8
:10236000F2DBE0030CD5DDE90D2321460A9800F0ED
:102370003EF8064404E0DDE90D1230209047761C5B
:10238000BAF10001AAF1010AF5DC05E0DDE90D1260
:1023900017F8010B9047761CBBF10001ABF1010B64
:1023A000F4DC0A982146DDE90D2300F00DF806441F
:1023B0006D1C287800287FF494AE0FB03046BDE83D
:1023C000F08F0000092801002DE9F04104460025A6
:1023D0001E461746880405D406E039462020B0473B
:1023E00005F10105641EF8D52846BDE8F0812DE908
:1023F000F041044600251E469046C80301D530270B
:1024000000E02027880405D506E041463846B0475D
:1024100005F10105641EF8D52846BDE8F0810000ED
:10242000402400080000002094000000B4200008B0
:10243000D42400089400002074040000C420000884
:10244000000000000000000001000000000000008B
:10245000010000000000000001000000000000007A
:10246000010000000000000001000000000000006A
:10247000010000000000000001000000000000005A
:10248000010000000000000000000000000000004B
:10249000000000000100000001000000000000003A
:1024A000000000000000000000000000000000002C
:1024B0000000000000000000000000000102030412
:1024C00001020304060708090204060800A24A04E0
:0424D0000000000008
:0400000508002021AE
:00000001FF
