:020000040800F2
:10000000B0040020E13500088116000883160008BE
:10001000871600088B1600088F16000800000000E5
:10002000000000000000000000000000951600081D
:1000300093160008000000009716000899160008A3
:10004000A1160008A3160008A5160008A7160008A8
:10005000A9160008AB160008AD16000857170008CF
:10006000591700085B1700085D1700085F170008A4
:100070006117000863170008651700086717000874
:10008000691700086B1700086D170008FB3500089A
:10009000FB350008FB350008FB3500087717000822
:1000A000791700087B1700089517000897170008B4
:1000B00099170008AF170008C5170008C7170008F0
:1000C000C9170008CB170008CD170008CF17000884
:1000D000D1170008D3170008D5170008D717000854
:1000E000D9170008DB170008DD170008DF17000824
:1000F000E1170008E3170008E5170008E7170008F4
:10010000E9170008EB170008ED170008EF170008C3
:10011000F1170008F3170008F5170008F717000893
:10012000F9170008FB170008FD170008FF17000863
:10013000DFF80CD003F098FA00480047290C0008BB
:10014000B004002070B504460D460A48007818B186
:10015000E0B202F0D7FB0AE0E1B2074802F01FFF6D
:1001600000BF4021044802F071FF0028F9D020466A
:1001700070BD0000000000200038014081867047FB
:1001800001B5FE490098086000BFFC4800680028DF
:10019000FBD108BD2DE9F04389B005462E786F7874
:1001A00095F8028095F8039000240CE016F0010FFA
:1001B00003D0012001A9085502E0002001A908553B
:1001C0007610601CC4B2082CF0DB002410E017F09D
:1001D000010F05D0012101AA04F10800115404E027
:1001E000002101AA04F1080011547F10601CC4B260
:1001F000082CECDB002411E018F0010F05D00121E0
:1002000001AA04F11000115404E0002101AA04F134
:10021000100011544FEA6808601CC4B2082CEBDBD4
:10022000002411E019F0010F05D0012101AA04F109
:100230001800115404E0002101AA04F1180011541F
:100240004FEA6909601CC4B2082CEBDB0020CC49E2
:100250000870CC4908700BE001A8CA4A1278815C8A
:10026000C9A003F033FAC7480078401CC54908709C
:10027000C44800782028EFDBC4A003F027FAC4A00C
:1002800003F024FA0021C44802F04AF80020C349D0
:10029000086040F2B331C248FFF770FF04E0BE4887
:1002A00002F05FF8BD490860BC48006842F228319E
:1002B0008842F4D940F26771B948FFF75FFF002127
:1002C000B54802F02DF80020B449086004E0B248B7
:1002D00002F047F8B1490860B048006841F2941153
:1002E0008842F4D940F2B331AD48FFF747FF002010
:1002F000A449087072E001A8A2490978405C01286D
:1003000034D140F2B331A648FFF738FF0021A248AC
:1003100002F006F80020A149086004E09E4802F0BF
:1003200020F89E4908609D480068B0F50C7FF5D91B
:1003300040F267719A48FFF721FF0021964801F0CB
:10034000EFFF00209549086004E0934802F009F8A7
:10035000924908609148006840F29A618842F4D955
:1003600040F2B3318E48FFF709FF32E040F2B3317B
:100370008B48FFF703FF0021874801F0D1FF0020E1
:100380008649086004E0844801F0EBFF8349086077
:1003900082480068B0F50C7FF5D940F2677180485B
:1003A000FFF7ECFE00217C4801F0BAFF00207B49FA
:1003B000086004E0784801F0D4FF78490860774885
:1003C0000068B0F50C7FF5D940F2B3317448FFF7FF
:1003D000D5FE6C480078401C6A490870694800786E
:1003E000202888DB0A20FFF7CBFE40F267716C48BB
:1003F000FFF7C4FE09B0BDE8F08370B505462C7860
:100400002402687804432402A87804432402E8788C
:10041000044300205A4908705A4908700AE05948B4
:100420000078295C5FA003F051F956480078401C21
:1004300054490870534800780428F0DB53A003F0B7
:1004400045F901204E4908700121002002F03CFAD4
:10045000214655A003F03AF970BD2DE9F04104465C
:1004600006AD95E8E0104FEACC1808EB871808EBCA
:10047000461808EB051808EBC30808EB820808EBE0
:100480004108A04408F0FF00BDE8F081FFB5054633
:100490000C467DB9E079A17962792379CDE9003202
:1004A000CDE90210E378A27861782078FFF7D5FFD4
:1004B000064634E0012D0FD1E17BA07B627B237BDC
:1004C000CDE90032CDE90201E37AA27A617A207A9D
:1004D000FFF7C3FF064622E0022D0FD1E07DA17D8C
:1004E000627D237DCDE90032CDE90210E37CA27C60
:1004F000617C207CFFF7B1FF064610E0032D0ED192
:10050000E27FA07F617F237FCDE90031CDE9020248
:10051000E37EA27E617E207EFFF79FFF0646304687
:1005200004B0F0BD10B522480078401C2049087086
:100530000846007802287DDD0020087002211D4851
:1005400002F061FB28B91C480078401C1A49087069
:1005500002E00020184908701748007804280BD1E1
:1005600001201649087000201549087015490870C7
:1005700015490870154908700F4829E01C00002033
:100580000000002024000020256400000D0A000067
:10059000646174610D0A000000040040280000201E
:1005A0000008004025587C0025382E5820202000C7
:1005B0000E000020000C01400F000020550000201C
:1005C000560000205700002058000020590000204D
:1005D00000780A2802D10520FE4908704021FE4813
:1005E00002F011FB28B9FD480078401CFB49087057
:1005F00002E00020F9490870F848007804280BD17F
:100600000120F74908700020F6490870F649087083
:10061000F6490870F6490870F04800780A2802D1B7
:100620000520EE4908700421EB4802F0ECFA38B9D5
:10063000F04800E030E10078401CEE49087002E02C
:100640000020EC490870EB48007804280BD1012009
:10065000E54908700020E3490870E1490870E34962
:100660000870E3490870E34800780A2802D10520A1
:10067000E04908700121E04802F0C5FA28B9DF48D6
:100680000078401CDD49087002E00020DB4908705A
:10069000DA48007804280BD10120D44908700020E2
:1006A000D0490870CE490870CF490870D049087009
:1006B000D24800780A2802D10520D04908702021AC
:1006C000C54802F0A0FA28B9CD480078401CCC49B2
:1006D000087002E00020CA490870C9480078042860
:1006E0000BD10120C24908700020BE490870BC49E6
:1006F0000870BD490870BD490870C14800780A28D3
:1007000002D10520BE4908708021B34802F07BFA6F
:1007100028B9BC480078401CBA49087002E00020A3
:10072000B8490870B7480078042816D10020B649A7
:100730000870B648007880B90120B54908700021DA
:10074000084602F0C1F8B3A002F0C0FF012100206A
:1007500002F0BAF8B2A002F0B9FFAA4800780A285D
:1007600002D10520A749087010219B4802F04BFADE
:1007700028B9AE480078401CAC49087002E000205F
:10078000AA490870A9480078042816D101209E497A
:1007900008709E48007880B901209D4908700021AA
:1007A000084602F091F8A2A002F090FF012100207B
:1007B00002F08AF89AA002F089FF9C4800780A2883
:1007C00002D10520994908700821834802F01BFADC
:1007D00028B99A480078401C9849087002E0002027
:1007E000964908709548007804284ED187480078CB
:1007F000B8B901208549087085490870002108466C
:1008000002F062F88EA002F061FF0121002002F0E8
:100810005BF883A002F05AFF4FF4FA70FFF7B0FCC8
:1008200033E00020794908706E4908706C490870FF
:100830006D4908706D4908706D4908700120744950
:1008400008700021084602F03FF86F48007870B940
:1008500070A002F03BFF0121002002F035F870A0EB
:1008600002F034FF4FF4FA70FFF78AFC0DE070A03D
:1008700002F02CFF0121002002F026F868A002F00F
:1008800025FF4FF4FA70FFF77BFC6C4800780A28CC
:1008900002D105206949087010BD70B588B00646C0
:1008A0000C4615460121072002F0A1FD0121C802D6
:1008B00002F090FDA0B2ADF81800681E80B2ADF84D
:1008C00014000020ADF81A00ADF8160005A9304656
:1008D00001F004F86020ADF804000120ADF8060036
:1008E0000020ADF80A000220ADF80C0001A9304646
:1008F00001F00DF801A9304601F040F801A9304699
:1009000001F086F801A9304601F0CAF80821304606
:1009100001F0A0FB0821304601F0A5FB082130467C
:1009200001F0AEFB0821304601F0B3FB0121304657
:1009300001F060FB0121304601F05CFA08B070BDA7
:1009400038B505460C4601211D2002F043FDA0B23A
:10095000ADF8000018208DF8030003208DF8020088
:100960006946284602F0BEF838BD00B585B0684635
:1009700002F0C3FC35490398086005B000BD01B51D
:1009800042F27472009901FB02F000E0401E002860
:10099000FCD108BD0EB501202D4908804820C87043
:1009A0000D4802F09FF80021084602F09FF901204F
:1009B00001F083FD00208DF80400012000900C2040
:1009C0008DF8050001208DF80600684601F0FEFC58
:1009D00006203FE00F00002000080140100000202A
:1009E000560000205500002057000020580000202D
:1009F0005900002011000020000C014012000020CE
:100A000013000020140000200D0000205A000020D8
:100A100000000020204D4F44455F312000000000C1
:100A20002020202020202020000000001500002091
:100A3000204D4F44455F322000000000160000208A
:100A4000204765745F49522000000000200000200C
:100A5000180000208DF808000F208DF809000020F4
:100A60008DF80A0001208DF80B0002A801F071FF3B
:100A70000EBD1FB519208DF80C0001208DF80D005A
:100A80008DF80E008DF80F0003A801F062FF012120
:100A9000C80202F09FFC4720ADF8000042F20F7040
:100AA000ADF804000020ADF80600ADF8020069467C
:100AB000FE4800F013FF01221146FC4801F0B5F991
:100AC0001FBD1FB51D208DF80C0001208DF80D00F5
:100AD0008DF80E008DF80F0003A801F03AFF0121F8
:100AE000022002F084FC4FF6FF70ADF804004720AE
:100AF000ADF800000020ADF80600ADF80200694630
:100B0000EB4800F0EBFE01221146E94801F08DF9B7
:100B10000021E74801F06EF91FBD1FB51C208DF8BC
:100B20000C0001208DF80D008DF80E008DF80F00DF
:100B300003A801F00EFF0121084602F058FC4FF611
:100B4000FF70ADF804004720ADF800000020ADF8BC
:100B50000600ADF8020069464FF0804000F0BEFE8E
:100B600001221146900701F060F900214FF080400A
:100B700001F040F91FBD10B54FF40070CD49088059
:100B80001820C87003208870CB4801F0ABFF4FF4E9
:100B90008060C84908800420C870C74801F0A2FFDF
:100BA0004FF4E130C549086000208880C880088182
:100BB00088810C204881C24802F013F90121C04805
:100BC00002F080F910BD10B501211D2002F002FCD9
:100BD0000121BC4802F055F80320B649088088700E
:100BE0004820C870B84801F07DFFFC20B14908805A
:100BF000032088704820C870AF4801F073FF0220BE
:100C0000AC490880032088701020C870AA4801F001
:100C100069FF10BD10B501210D2002F0DBFB0121A1
:100C2000880302F0D7FB10BDFFF7F4FFFFF7CBFFFF
:100C3000FFF7A1FFFFF771FFFFF743FFFFF719FF72
:100C4000FFF7A8FEA14800684FF47A72B0FBF2F1FA
:100C5000B1F1807F01D301201DE021F07F40401ED3
:100C60004FF0E022506150170F22002807DA1307D7
:100C70001D0E974B00F00F04241F1D5503E01307B2
:100C80001C0E944B1C5400BF00204FF0E0229061DA
:100C900007201061002008B100BFFEE74FF47A7012
:100CA000FFF76DFEFFF761FE01F08EFC8A480168D8
:100CB0008AA002F00BFD00214FF0804001F030FBD4
:100CC0000121880701F096F801F0C7FD02217A485A
:100CD00001F0B5FF0121764801F08CF8002085492C
:100CE000087040217848FFF72BFE012240F2667120
:100CF0008148FFF7D2FD40F266717F48FFF73EFA68
:100D000000207C4908707D4A04217D48007801F06C
:100D100038FC7C4A04217C48007801F032FC7B4A94
:100D200004217B48007801F02CFC7A4A04217A489F
:100D3000007801F026FC794A04217948007801F016
:100D400020FC784A04217848007801F01AFC774AA0
:100D500004217748007801F014FC764A0421764893
:100D6000007801F00EFC754A04217548007801F006
:100D700008FC744A04217448007801F002FC5F48C2
:100D8000FFF73BFB01205B4908700021084601F09A
:100D90009BFDAFF2803002F099FCDFE3FFF7C2FB6E
:100DA0006A48007801287DD16948007800287AD106
:100DB0006848007801282ED14E4908700021084665
:100DC00001F082FD64A002F081FC664800780128F1
:100DD000E3D1002063490870634908700DE063495E
:100DE00061480078FFF752FB44495F4A1278885403
:100DF0005D480078401C5C4908705B480078042816
:100E0000EDDB3E48FFF7F9FA3C4A04213C48007804
:100E100001F0A6FBA2E35648007801282ED13549FF
:100E200008700021084601F04FFD52A002F04EFC70
:100E30004C4800780128B0D100204A4908704A493E
:100E400008700DE0494948480078FFF71FFB2D491D
:100E5000454A1278885444480078401C424908703A
:100E6000414800780428EDDB2648FFF7C6FA254AFA
:100E700004212548007801F073FB6FE340480078B7
:100E8000012811D11B4908700021084601F01CFD02
:100E90003CA002F01BFC334800780128BAD10020A6
:100EA000304975E0F9E1F9E092E00000002C0140E2
:100EB0000004004018000020000801407C000020D1
:100EC0000038014000043000000C01407400002094
:100ED00018ED00E000E400E020000020636C6F6388
:100EE0006B205379735469636B203D202533750A59
:100EF0000000000000000020000800402C0000203E
:100F000003000020300000200400002034000020F6
:100F10000500002038000020060000203C000020D2
:100F200007000020400000200800002044000020AE
:100F300009000020480000200A0000204C0000208A
:100F40000B000020500000200C0000205A00002060
:100F50000D000020550000204D6F6465315F543155
:100F60000000000054000020240000208C0000201D
:100F7000560000204D6F6465315F54320000000060
:100F8000570000204D6F6465315F5433000000004E
:100F90000870F64908700DE0F549F4480078FFF74D
:100FA00075FAF449F14A12788854F0480078401CE8
:100FB000EE490870ED4800780428EDDBED48FFF7B6
:100FC0001CFAEC4A0421EC48007801F0C9FAC5E2A9
:100FD000EA48007801282ED1E94908700021084626
:100FE00001F072FCE7A002F071FBE94800780128EB
:100FF000EDD10020E6490870DC4908700DE0DC49BD
:10100000DA480078FFF742FAE249D84A1278885461
:10101000D6480078401CD5490870D4480078042888
:10102000EDDBDC48FFF7E9F9DA4A0421DA48007819
:1010300001F096FA92E2D94800780128C7D1D04948
:1010400008700021084601F03FFCD5A002F03EFBED
:10105000CF4800780128BAD10020CD490870C34993
:1010600008700DE0C249C1480078FFF70FFACF4978
:10107000BE4A12788854BD480078401CBB490870AD
:10108000BA4800780428EDDBC848FFF7B6F9C74A2C
:101090000421C748007801F063FA5FE2C548007890
:1010A00001282ED1B64908700021084601F00CFC39
:1010B000C1A002F00BFBB6480078012887D10020C0
:1010C000B3490870A94908700DE0A949A7480078FC
:1010D000FFF7DCF9BB49A54A12788854A348007889
:1010E000401CA2490870A14800780428EDDBB548EF
:1010F000FFF783F9B34A0421B348007801F030FACE
:101100002CE2B248007801282ED19D4908700021B8
:10111000084601F0D9FBAEA002F0D8FA9C4800784E
:10112000012887D100209A490870904908700DE085
:101130008F498E480078FFF7A9F9A8498B4A1278A1
:1011400088548A480078401C88490870874800788D
:101150000428EDDBA148FFF750F9A04A0421A0487C
:10116000007801F0FDF9F9E19E48007801282ED1C0
:10117000834908700021084601F0A6FB9AA002F0FE
:10118000A5FA83480078012887D10020804908709B
:10119000764908700DE0764974480078FFF776F9D3
:1011A0009449724A1278885470480078401C6F49FC
:1011B00008706E4800780428EDDB8E48FFF71DF9B3
:1011C0008C4A04218C48007801F0CAF9C6E16B48CA
:1011D000007801282ED16A4908700021084601F0E4
:1011E00073FB86A002F072FA69480078012887D163
:1011F0000020674908705D4908700DE05C495B4854
:101200000078FFF743F98049584A127888545748C4
:101210000078401C55490870544800780428EDDBDC
:101220007948FFF7EAF8784A04217848007801F015
:1012300097F993E159480078012894D150490870F2
:101240000021084601F040FB71A002F03FFA50482F
:101250000078012887D100204D4908704349087063
:101260000DE0434941480078FFF710F96B493F4AC8
:10127000127888543D480078401C3C4908703B482F
:1012800000780428EDDB6548FFF7B7F8634A0421CE
:101290006348007801F064F960E162480078002852
:1012A00063D144480078012814D1002041490870D6
:1012B0000120334908700021084601F005FBAFF614
:1012C000AC0002F003FA5848FFF797F85648FEF7CB
:1012D00061FF43E13D480078012814D100203B49DB
:1012E00008700120264908700021084601F0ECFA38
:1012F000AFF6E00002F0EAF94C48FFF77EF84B4801
:10130000FEF748FF2AE137480078012814D1002071
:101310003449087001201A4908700021084601F07C
:10132000D3FAAFF6101002F0D1F91248FFF765F8C2
:101330001048FEF72FFF11E110480078012878D1FE
:1013400000200E49087001200D4908700021084650
:1013500001F0BAFAAFF6441002F0B8F90D48FFF701
:101360004CF80C48FEF716FFF8E07BE02400002064
:101370008C000020340000200500002058000020D0
:10138000000000204D6F6465315F543400000000A0
:1013900054000020380000200600002059000020E2
:1013A0004D6F6465315F5435000000003C00002043
:1013B00007000020550000204D6F6465325F5431F6
:1013C000000000004000002008000020560000201F
:1013D0004D6F6465325F543200000000440000200D
:1013E00009000020570000204D6F6465325F5433C0
:1013F00000000000480000200A0000204D6F6465D6
:10140000325F5434000000004C0000200B0000202C
:101410004D6F6465325F54350000000050000020BD
:101420000C0000200D0000202C00002030000020C7
:10143000FFE785480078012896D10020824908708E
:101440000120824908700021084601F03DFAAFF6FC
:101450003C2002F03BF97E48FEF7CFFF7C48FEF7C8
:1014600099FE7BE07B480078012814D1002079495F
:1014700008700120754908700021084601F024FA1F
:10148000AFF6542002F022F97348FEF7B6FF724817
:10149000FEF780FE62E071480078012814D1002038
:1014A0006E4908700120694908700021084601F062
:1014B0000BFAAFF6842002F009F96948FEF79DFFA8
:1014C0006748FEF767FE49E066480078012814D1B6
:1014D00000206449087001205C490870002108461A
:1014E00001F0F2F9AFF6B82002F0F0F85E48FEF72E
:1014F00084FF5D48FEF74EFE30E05C48007801282E
:1015000014D1002059490870012050490870002169
:10151000084601F0D9F9AFF6E82002F0D7F85448B0
:10152000FEF76BFF5248FEF735FE17E0464800789D
:10153000012813D100204449087001204349087054
:101540000021084601F0C0F9AFF61C3002F0BEF8E9
:101550004848FEF752FF4748FEF71CFE1EE42DE9FF
:10156000F043044607AD95E8E010BCF1000F02D14E
:101570004FF0010801E04FF000084FEAC81917B911
:101580004FF0010801E04FF0000809EB881916B987
:101590004FF0010801E04FF0000809EB481915B9B8
:1015A0004FF0010801E04FF0000809EB081913B9EA
:1015B0004FF0010801E04FF0000809EBC80912B92B
:1015C0004FF0010801E04FF0000809EB880911B95C
:1015D0004FF0010801E04FF0000809EB480914B989
:1015E0004FF0010801E04FF00008C84408F0FF0088
:1015F000BDE8F0830187704781877047A0F84010ED
:10160000704701B5009901EB8101480000E0401EE0
:101610000028FCD108BD01B581B00020009016491A
:1016200001984843009002E00098401E0090009806
:101630000028F9D10CBD1148006820B10F4800689E
:10164000401E0E490860704759000020000000202D
:101650003C000020550000204000002056000020E3
:1016600044000020570000204800002058000020BF
:101670004C0000205000002080FC0A001C000020CC
:10168000704700BFFEE700BFFEE700BFFEE700BFF8
:10169000FEE770477047704710B5FFF7CCFF10BDED
:1016A00070477047704770477047704710B501200A
:1016B00000F0F2FE00284AD04FF0804000F051FECA
:1016C000044600214FF0804000F02AFE4C4800788C
:1016D000012831D1B4F5FA6F0CD3B4F5166F09D8DF
:1016E0004849494A1278885447480078401C46497E
:1016F000087015E0B4F57A7F0DD3B4F5966F0AD86B
:1017000000214048404A127881543F480078401CEC
:101710003D49087004E000203B49087038490870D2
:1017200039480078202807D100203749087034490B
:10173000087001203549087043F2C820844206D35E
:1017400043F2B060844202D801202D490870012084
:1017500000F0B3FE10BD7047704770477047704788
:1017600070477047704770477047704770477047C1
:101770007047704770477047704710B50121244883
:1017800000F001FE28B10121214800F00DFEFEF716
:10179000C9FE10BD7047704710B50121880700F0E1
:1017A000F2FD18B10121880700F0FEFD10BD10B553
:1017B0000121184800F0E7FD18B10121154800F09B
:1017C000F3FD10BD70477047704770477047704712
:1017D0007047704770477047704770477047704751
:1017E0007047704770477047704770477047704741
:1017F0007047704770477047704770477047704731
:101800005B0000208C0000205C00002054000020C1
:10181000002C01400004004010B50446FE488442FC
:1018200008D10121C01401F0EFFD0021E01401F006
:10183000EBFD52E0B4F1804F08D10121084601F0E0
:10184000F0FD0021012001F0ECFD46E0F348844268
:1018500008D10121022001F0E4FD0021022001F065
:10186000E0FD3AE0EE48844208D10121042001F075
:10187000D8FD0021042001F0D4FD2EE0E948844287
:1018800008D10121082001F0CCFD0021082001F041
:10189000C8FD22E0E448844208D10121102001F073
:1018A000C0FD0021102001F0BCFD16E0DF4884429D
:1018B00008D10121202001F0B4FD0021202001F0F9
:1018C000B0FD0AE0DA48844207D10121401401F05A
:1018D0009BFD0021601401F097FD10BD028802F00D
:1018E0008F020280CA884B881A4303881A430280F9
:1018F0008A8882850A880285C74A904202D0CC4AEB
:10190000904201D10A7A028601228282704770B524
:10191000002400220023058C4FF6FE763540058416
:10192000028C8388048B4FF68C752C400D882C43D9
:10193000751E2A400D892A434D882A43B64DA84278
:1019400002D0BB4DA84213D14FF6F7752A404D89FE
:101950002A434FF6FB752A408D882A4347F6FF65D8
:101960002B4047F6FF552B408D892B43CD892B43C8
:1019700083800483CD888586028470BD70B5002481
:1019800000220023058C4FF6EF7635400584028C4B
:101990008388048B48F6FF452C400D884FF6FF7670
:1019A00006EA05252C434FF6DF752A400D8906EA25
:1019B00005152A434D8806EA05152A43964DA84287
:1019C00002D09B4DA8421DD14FF67F752A404D890C
:1019D0004FF6FF7606EA05152A434FF6BF752A40F3
:1019E0008D8806EA05152A4347F6FF352B4047F256
:1019F000FF752B408D8906EA85052B43CD8906EAC4
:101A000085052B4383800483CD880587028470BDC0
:101A100070B5002400220023058C4FF6FF66354088
:101A20000584028C8388848B4FF68C752C400D883E
:101A30002C434FF6FF552A400D894FF6FF7606EAF4
:101A400005252A434D8806EA05252A43724DA842FA
:101A500002D0774DA8421DD14FF2FF752A404D8923
:101A60004FF6FF7606EA05252A434FF6FF352A4052
:101A70008D8806EA05252A4346F6FF752B4045F674
:101A8000FF752B408D8906EA05152B43CD8906EAA3
:101A900005152B4383808483CD888587028470BDA0
:101AA00070B5002400220023058C4EF6FF763540E9
:101AB0000584028C8388848B48F6FF452C400D8872
:101AC0004FF6FF7606EA05252C434DF6FF752A40B2
:101AD0000D8906EA05352A434D8806EA05352A436D
:101AE0004D4DA84202D0524DA84207D1C3F30D0379
:101AF0008D894FF6FF7606EA85152B438380848314
:101B0000CD88A0F84050028470BD828B4FF2FF3325
:101B10001A408283828B4FF6FF7303EA01231A4334
:101B200082837047F0B50C4615460021002200263E
:101B3000078C4EF6FF7C07EA0C070784818B028C2A
:101B40004FF6FF7707EA043640F6FF4739404FF675
:101B5000FF7707EA052739434FF6FF7707EA033790
:101B600039434DF6FF773A4046F480573A43818334
:101B70000284F0BD828B4FF6F3731A408283828B0E
:101B80000A4382837047F0B50C46154600210022B7
:101B90000026078C4FF6FF6C07EA0C070784818B41
:101BA000028C4FF6FF7707EA04264FF60C77394090
:101BB0004FF6FF7707EA03172F4339434FF6FF57D6
:101BC0003A4046F480773A4381830284F0BD028B29
:101BD0004FF2FF331A400283028B4FF6FF7303EA82
:101BE00001231A4302837047F0B50C4615460021C5
:101BF00000220026078C4FF6EF7C07EA0C070784CB
:101C0000018B028C4FF6FF7707EA041640F6FF4778
:101C100039404FF6FF770DE0002C014000040040F2
:101C200000080040000C004000100040001400407C
:101C30000034014007EA033739434FF6FF7707EADC
:101C4000052739434FF6DF773A4046F010073A430D
:101C500001830284F0BD028B4FF6F3731A400283B6
:101C6000028B0A4302837047F0B50C4615460021EB
:101C70000022068C4FF6FE773E400684018B028CD4
:101C80004FF60C7631407E1C06EA03162E43314394
:101C90007E1E324044F00106324301830284F0BDCF
:101CA00070B505460C46208850B92389A288618802
:101CB0002846FFF7D9FFE1882846FFF7CCFF25E04B
:101CC000208804280AD12389A28861882846FFF742
:101CD0008BFFE1882846FFF77AFF17E02088082865
:101CE0000AD12389A28861882846FFF74CFFE18842
:101CF0002846FFF73FFF09E02389A288618828462C
:101D0000FFF710FFE1882846FFF7FFFE70BD2DE9C1
:101D1000F04105460C4600260127608808B90226D6
:101D200000E00026A088012801D1022700E0012759
:101D30002088A0B92389A28861882846FFF794FFEC
:101D4000E1882846FFF787FF23893A46314628462F
:101D5000FFF74AFFE1882846FFF739FF13E02389A0
:101D6000A28861882846FFF73FFFE1882846FFF7F1
:101D70002EFF23893A4631462846FFF775FFE18852
:101D80002846FFF768FFBDE8F0810A884B881A43B0
:101D90008B881A43CB881A430B891A434B891A4301
:101DA0008B891A43A0F8442070474FF6FF71818059
:101DB00000210180C18041800172704700210180B3
:101DC00041808180C180018141818181C1817047D1
:101DD000002101804180012181800021C180018199
:101DE00070470021018041808180C1800181418153
:101DF0008181704721B1028842F00102028004E033
:101E0000028840F2FE331A400280704731B1B0F8C8
:101E1000442042F40042A0F8442005E0B0F84420F9
:101E2000C2F30E02A0F8442070471AB183890B4315
:101E3000838102E083898B4383817047818270476D
:101E400041EA0203A0F8483070471AB183890B4376
:101E5000838102E083898B438381704701894FF638
:101E6000F8721140018170470A46002101894FF63E
:101E70008F73194011430181704730B504460D46F8
:101E800029462046FFF7F0FF208940F00700208117
:101E900030BD2DE9F04104460D4616461F46602D23
:101EA00006D13B46012231462046FFF79DFE05E064
:101EB0003B46012231462046FFF7D6FE2946204602
:101EC000FFF7D2FF208940F007002081BDE8F081B4
:101ED00030B50C4600210189C9B24FF6FF7505EAFD
:101EE0000325154325432943018130BD2DE9F041E8
:101EF00005460E4617469846002443463A46314664
:101F00002846FFF7E5FF2C894FF6F870044044F0AF
:101F100007044FF68F70044044F070042C81BDE834
:101F2000F081F0B504460D4616461F463B46324644
:101F300029462046FFF7CCFF208940F480402081CD
:101F4000F0BD0185828270470A460021018840F277
:101F50008F331940114301807047F0B50C46154688
:101F60001E460021002200230189028B038C4FF6BC
:101F7000F877394021434FF6FC473A4040F20117C9
:101F80003A434FF6DD773B404FF6FF7707EA0617F7
:101F90002F433B43018102830384F0BD0A460021A5
:101FA000018B4FF68F7319401143018370470A4626
:101FB0000021018B48F6FF7319404FF6FF7303EAC7
:101FC00002231943018370470A460021818B4FF693
:101FD0008F7319401143818370470A460021818B1A
:101FE00048F6FF7319404FF6FF7303EA02231943C3
:101FF0008183704721B1028842F08002028004E0B0
:10200000028840F27F331A400280704721B18288F3
:1020100042F00402828004E082884FF6FB731A408B
:102020008280704721B1828842F00802828004E0F9
:1020300082884FF6F7731A408280704721B18288F8
:1020400042F00102828004E082884FF6FE731A405B
:10205000828070470A460021018B4FF6F7731940C2
:102060001143018370470A460021018B4FF2FF7331
:1020700019404FF6FF7303EA0223194301837047A7
:102080000A460021818B4FF6F77319401143818373
:1020900070470A460021818B4FF2FF7319404FF6BB
:1020A000FF7303EA02231943818370470A46002124
:1020B000018B4FF6FB7319401143018370470A46A9
:1020C0000021018B4FF6FF3319404FF6FF7303EAEF
:1020D00002231943018370470A460021818B4FF682
:1020E000FB7319401143818370470A460021818B9D
:1020F0004FF6FF3319404FF6FF7303EA02231943EB
:10210000818370470A460021018B4FF67F73194087
:102110001143018370470A460021018BC1F30E0170
:102120004FF6FF7303EA02231943018370470A46FF
:102130000021818B4FF67F731940114381837047D3
:102140000A460021818BC1F30E014FF6FF7303EAAB
:1021500002231943818370470A460021018C4FF600
:10216000FD7319401143018470470A460021018C18
:102170004FF6F77319401143018470470A46002156
:10218000018C4FF6DF7319404FF6FF7303EA021319
:102190001943018470470A460021018C4FF67F7372
:1021A00019404FF6FF7303EA021319430184704785
:1021B0000A460021018C4FF6FF5319404FF6FF737A
:1021C00003EA02231943018470470A460021018C67
:1021D0004FF2FF7319404FF6FF7303EA02231943CE
:1021E000018470470A460021018C4DF6FF731940A7
:1021F0004FF6FF7303EA023319430184704730B589
:10220000002301248C40A3B2048C9C430484048CDE
:1022100002FA01F5ADB22C43048430BD30B5002381
:1022200004248C40A3B2048C9C430484048C02FAE2
:1022300001F5ADB22C43048430BD70B503460020D7
:1022400000241846183001258D40ACB21D8CA543E2
:102250001D8409B108290AD100EB610005684FF619
:102260008F76354005600568154305600FE00D1F4A
:10227000C5F34E052844056848F6FF7635400560ED
:1022800005684FF6FF7606EA02263543056070BD05
:1022900021B1028842F00202028004E0028840F28A
:1022A000FD331A400280704721B1028842F00402D7
:1022B000028004E0028840F2FB331A40028070473B
:1022C00021B1828842F08002828004E082884FF649
:1022D0007F731A4082807047028840F2F7331A40B9
:1022E000028002880A430280704782884FF68F730B
:1022F0001A40828082880A438280704702894FF6A2
:10230000F8731A40028102890A43028170470289E8
:102310004FF67F731A40028102890A430281704797
:102320008184704781857047818670470187704737
:1023300081877047A0F8401070470288D2B20280AF
:1023400002880A43028070470146888E7047014622
:10235000088F70470146888F70470146B1F84000EA
:1023600070470146888C70470146088D70470246C9
:102370000020138A0B4201D0012000E000207047AA
:10238000CA430282704730B5024600200023002471
:10239000158A05EA0103958905EA010413B10CB118
:1023A000012000E0002030BDCA43028270470000D7
:1023B000002044490860091D0860091D0860091DC6
:1023C000086041483F4914310860704700213D4989
:1023D0008279002A3AD00A46126803689A430B466B
:1023E0001A600A1D126803689A430B1D1A6002796D
:1023F00011440A6803681A430A60324A08321268B4
:1024000003689A432F4B08331A601A1D1268036839
:102410009A432C4B0C331A604279102A0ED11A1FA2
:10242000126803681A43274B08331A601A1D126892
:1024300003681A43234B0C331A600DE0214942799B
:1024400011440A6803681A430A6005E002791144DE
:102450000A6803689A430A607047002101600171AD
:102460000C214171002181717047164910310968B2
:102470000143144A10321160704701460020114A8E
:10248000143212680A4201D0012000E00020704797
:102490000C49143108607047014600200022094BA6
:1024A0001B6803EA0102074B14331B680B4202D07E
:1024B0000AB1012000E00020704702491431086091
:1024C0007047000000040140FFFF0F0010B500F04E
:1024D0008FF8A02000F0B8F8044600F09EF82046DF
:1024E00010BD70B504460D4600BFFFF7EFFF002892
:1024F000FBD100F07DF8C4F3C71101F0FE0141F0FB
:10250000A00000F0A1F8E0B200F09EF8284600F02C
:102510009BF800F082F870BD70B5044600BFFFF76D
:10252000D5FF0028FBD100F063F8C4F3C71101F018
:10253000FE0141F0A00000F087F8E0B200F084F85E
:1025400000F056F8C4F3C71141F0A10000F07CF888
:10255000002000F0B6F8054600F05FF8284670BD90
:1025600070B506460C46154608E029783046FFF758
:10257000B8FF6D1C701C86B2601E84B2002CF4D1B2
:1025800070BD2DE9F04107460D461646002407E0D0
:102590003846FFF7C1FF3055781C87B2601CC4B2C3
:1025A000AC42F5DBBDE8F081F8B506460C461546B1
:1025B000ADF800408DF8035003208DF80200694605
:1025C000304600F08FFAF8BD10B514224FF4806148
:1025D0005848FFF7E9FF14224FF400615548FFF710
:1025E000E3FF0120544908605449C1F8A80110BD17
:1025F00010B514224FF480614E48FFF7D5FF01203B
:102600004F4908604D49C1F8AC014FF000004C49FA
:1026100008604A49C1F8AC0110BD10B514224FF44E
:1026200080614448FFF7C0FF0020454908604FF033
:1026300001004249C1F8AC01414908604FF0000077
:102640003E49C1F8AC0110BD70B5044614224FF4E8
:1026500080613848FFF7A8FF00251FE014F0800FC5
:1026600003D001203649086002E0002034490860A8
:102670004FEA44604FEA10644FF00100FDF780FD1F
:1026800001202D490860FDF77BFD00202B49C1F892
:10269000AC010120FDF774FD681CC5B2082DDDDB1F
:1026A000042211022348FFF77FFF0120224908601E
:1026B0002248D0F82801C5B24FF000000860284633
:1026C00070BD70B505460024042211021948FFF7B9
:1026D0006BFF002615E0012017490860FDF750FD4B
:1026E0006006040E1548D0F8280108B144F0010432
:1026F0000120FDF745FD00200F49086006F10100AB
:10270000C6B2082EE7DB14224FF480610948FFF7B8
:102710004BFF012008490860FDF732FD0748C0F86B
:10272000A8510120FDF72CFD002003490860204638
:1027300070BD0000000C0140AC81214200802142AC
:10274000A881214210B54FF400517C4800F075FA81
:102750000320FEF756FF4FF40051784800F06FFA5F
:102760003220FEF74EFF10BD70B5044600253FE055
:1027700035B1012D13D0022D1ED0032D36D128E006
:1027800014F0010F05D04FF400416C4800F055FAE9
:1027900004E04FF40041694800F051FA26E0C4F328
:1027A000400020B10821664800F047FA03E0082104
:1027B000634800F044FA19E0C4F3800020B110210E
:1027C0005F4800F03AFA03E010215D4800F037FA64
:1027D0000CE0C4F3C00020B12021594800F02DFACC
:1027E00003E02021564800F02AFA00BF00BF6D1C0C
:1027F000032DBDD970BD10B504462011FFF7B4FFFD
:10280000FFF7A0FF2046FFF7AFFFFFF79BFF10BDCC
:1028100008B501210D2000F0DDFD0121494800F03F
:1028200030FA4FF43840ADF8000003208DF8020074
:1028300010208DF803006946404800F053F9382015
:10284000ADF8000003208DF8020010208DF8030081
:1028500069463B4800F046F908BD10B5FFF7D8FFC0
:102860001420FEF78CF80020FFF77EFF1420FEF7FF
:1028700086F84FF40061314800F0E1F94FF48051DF
:102880002E4800F0DCF90320FFF76EFFFFF75AFF38
:102890000520FEF774F8FFF755FF6420FEF7B1FE40
:1028A000FFF750FF0220FFF75FFFFFF74BFF2820E5
:1028B000FFF7A1FF0C20FFF79EFF0620FFF79BFF0D
:1028C0000120FFF798FF10BD70B504460E461EB9F3
:1028D00004F18000C5B202E004F1C000C5B24FF4BB
:1028E0007A70FEF78EFE2846FFF785FF3220FEF74E
:1028F00088FE70BD10B50120FFF77DFF0520FEF7B3
:102900003EF810BD10B504464FF400610B4800F0CE
:1029100094F92046FFF76FFF4FF40061074800F07D
:102920008EF910BD10B5044603E02078FFF7EAFFEA
:10293000641C20780028F8D110BD00000008014078
:10294000000C01400004300031490143314A11605C
:10295000704770B5002100230F22C4780CB32D4CB2
:10296000246804F4E064C4F5E064210AC1F10403BE
:10297000CA40447804FA03F18478144021430901E1
:10298000254C0678A155047804F01F050124AC40BD
:1029900005786D114FF0E02606EB8505C5F800417E
:1029A00009E0047804F01F050124AC401B4D0678B3
:1029B000761145F8264070BD194A0A400243154B6E
:1029C0001B1F1A60704739B1124A121D1268024368
:1029D000104B1B1D1A6006E00E4A121D126882433E
:1029E0000C4B1B1D1A607047042808D14FF0E021E2
:1029F000096941F004014FF0E022116107E04FF056
:102A0000E021096921F004014FF0E02211617047D3
:102A10000000FA050CED00E000E400E080E100E0D9
:102A200080FFFF1F10B50446C248844208D101212F
:102A3000042000F0E9FC0021042000F0E5FC46E061
:102A4000BD48844208D10121082000F0DDFC0021AE
:102A5000082000F0D9FC3AE0B848844208D10121AE
:102A6000102000F0D1FC0021102000F0CDFC2EE061
:102A7000B348844208D10121202000F0C5FC002188
:102A8000202000F0C1FC22E0AE48844208D10121A0
:102A9000402000F0B9FC0021402000F0B5FC16E019
:102AA000A948844208D10121802000F0ADFC00211A
:102AB000802000F0A9FC0AE0A448844207D101214B
:102AC000801500F0A1FC0021A01500F09DFC10BDB8
:102AD00010B50121084600F097FC0021012000F00C
:102AE00093FC10BD2DE9F041024600250026002090
:102AF00000230024002791F803C00CF00F0591F883
:102B000003C01CF0100F03D091F802C04CEA050579
:102B100091F800C0BCF1000F31D0146800202BE008
:102B20004FF0010C0CFA00F3B1F800C00CEA0306F8
:102B30009E4220D183004FF00F0C0CFA03F7BC43E8
:102B400005FA03FC4CEA040491F803C0BCF1280F19
:102B500006D14FF0010C0CFA00FCC2F814C00AE0D8
:102B600091F803C0BCF1480F05D14FF0010C0CFAED
:102B700000FCC2F810C0401C0828D1D31460B1F882
:102B800000C0BCF1FF0F34DD546800202EE000F1DE
:102B9000080C4FF0010808FA0CF3B1F800C00CEA79
:102BA00003069E4221D183004FF00F0C0CFA03F76D
:102BB000BC4305FA03FC4CEA040491F803C0BCF1E1
:102BC000280F05D100F1080C08FA0CF8C2F814809F
:102BD00091F803C0BCF1480F07D100F1080C4FF089
:102BE000010808FA0CF8C2F81080401C0828CED35F
:102BF0005460BDE8F0814FF6FF71018002218170C1
:102C00000421C17070470246002093680B4201D036
:102C1000012000E0002070470146886880B27047BC
:102C200002460020D3680B4201D0012000E00020C2
:102C300070470146C86880B27047016170474161C2
:102C400070470AB1016100E041617047C16070479F
:102C50004FF480320A4382618161826182698269B4
:102C60007047024600203A4B18684FF680731840B0
:102C700040EA02100843364B186070473549C86176
:102C80007047F0B50A460023002400210025304E8D
:102C90007168C0F3034583B200F44016B6F5401FD7
:102CA00008D121F070612A4E766826F07066284FB0
:102CB0007E6012E000F48016B6F5801F06D1032670
:102CC00006FA05F4A14341F0706106E0460D3601B5
:102CD00003FA06F6B14341F0706122B1460D3601A8
:102CE00003FA06F631431A4E7160F0BD30B500228A
:102CF0008B071C0F0F2303FA04F2154B08338C10BB
:102D000053F824309343124C08348D1044F8253086
:102D100023468C1053F824308C07240F00FA04F457
:102D200023430B4C08348D1044F8253030BD0A493C
:102D30000860704700080140000C0140001001408D
:102D40000014014000180140001C01400020014017
:102D50000000014000002042DC00204210B5044683
:102D6000E248844209D10121880300F04DFB002193
:102D70004FF4804000F048FB32E0DD48844209D146
:102D80000121480400F04DFB00214FF4003000F019
:102D900048FB25E0D748844209D10121880400F08E
:102DA00040FB00214FF4802000F03BFB18E0D248AC
:102DB000844209D10121C80400F033FB00214FF403
:102DC000002000F02EFB0BE0CC48844208D101210A
:102DD000080500F026FB00214FF4801000F021FBD5
:102DE00010BD2DE9F04786B005460E460024A246E8
:102DF00000BF00BF0027B08900B100BF2F462C8A5A
:102E00004CF6FF700440F08804432C82AC894EF6E7
:102E1000F3100440B08831890843718908430443A2
:102E2000AC81AC8A4FF6FF400440B0890443AC82C9
:102E300001A800F062FAAD48874202D1DDF810A087
:102E400001E0DDF80CA00AEBCA0000EB0A103168C3
:102E50008900B0FBF1F86420B8FBF0F00401200910
:102E6000642101FB1089322000EB0910B0FBF1F066
:102E700000F00F0004432C8106B0BDE8F0874FF44A
:102E80001651016000218180C18001810C214181A6
:102E900000218181704710B502460020108A4FF250
:102EA000FF0318400B884C8823438C882343CC882D
:102EB00023431843108210BD00210180418081808E
:102EC000C180704721B1828942F40052828104E0BE
:102ED00082894DF6FF731A4082817047F0B5034630
:102EE0000024002600250020A1F510676A3F00D1CC
:102EF00000BF1846C1F3421401F01F06012707FA6C
:102F000006F5012C01D10C3004E0022C01D1103067
:102F100000E014301AB107682F43076002E0076829
:102F2000AF430760F0BD1AB1838A0B43838202E08E
:102F3000838A8B4383827047028A4FF6F0731A406C
:102F40000282028A0A430282704782894FF2FF732B
:102F50001A40828182890A438281704721B1828925
:102F600042F00202828104E082894FF6FD731A402A
:102F700082817047028A4FF6DF731A400282028A0A
:102F80000A430282704721B1028A42F480420282DF
:102F900004E0028A4BF6FF731A4002827047C1F3C5
:102FA00008028280704701468888C0F30800704795
:102FB000818941F0010181817047028BD2B2028385
:102FC000028B42EA012202837047028B02F47F42A5
:102FD0000283028B0A430283704721B1828A42F046
:102FE0002002828204E0828A4FF6DF731A408282D6
:102FF000704721B1828A42F01002828204E0828A04
:103000004FF6EF731A408282704721B1828A42F0F4
:103010000802828204E0828A4FF6F7731A408282A5
:103020007047828A4FF6FB731A408282828A0A4373
:103030008282704721B1828A42F00202828204E0D9
:10304000828A4FF6FD731A40828270470246002042
:10305000B1F5007F00D100BF13880B4201D00120E1
:1030600000E00020704701F40072B2F5007F00D14B
:1030700000BFCA430280704770B502460024002397
:1030800000250020A1F510666A3E00D100BFC1F303
:10309000421501F01F03012606FA03F3012D02D1A8
:1030A0009689334006E0022D02D1168A334001E0B2
:1030B000968A33400C12012606FA04F4168834402E
:1030C00013B10CB1012000E0002070BD10B500224A
:1030D0000023A1F510646A3C00D100BF0A1201244C
:1030E0009440A3B2DC43048010BD000000380140CE
:1030F0000044004000480040004C004000500040A8
:10310000DD48006840F00100DB490860084640687F
:10311000DA490840D849486008460068D84908405C
:10312000D54908600846006820F4802008600846F9
:10313000406820F4FE0048604FF41F00886070472C
:10314000CD49096821F48031CB4A116011460968E4
:1031500021F480211160B0F5803F03D0B0F5802FBD
:103160000ED106E0C449096841F48031C24A1160B9
:1031700007E0C149096841F4A021BF4A116000E09D
:1031800000BF00BF704710B5014600220023002099
:103190004A11012A02D1B84C236806E0022A02D162
:1031A000B54C236A01E0B44C636A01F01F020124AC
:1031B00094401C4201D0012000E0002010BD38B531
:1031C000002000900024002500BF3120FFF7DBFF26
:1031D00005460098401C00900098B0F5A06F01D003
:1031E000002DF2D03120FFF7CEFF08B1012400E01E
:1031F0000024204638BD014600209F4A106820F078
:10320000F80040EAC100106070479E4908607047AE
:1032100002460020984B586820F47C1042EA0103D3
:103220001843954B586070479649086670470146A9
:103230000020914A506820F0030008435060704716
:103240008D48406800F00C007047014600208A4A13
:10325000506820F0F000084350607047014600209D
:10326000854A506820F4E06008435060704701468A
:103270000020814A506820F4605040EAC10050604C
:10328000704729B17C4A527A02437B4B5A7204E060
:10329000794A527A8243784B5A7270477A49086069
:1032A000704701460020744A506820F440400843AB
:1032B000506070470021754A11706F4A82F82010E3
:1032C000012802D0042808D103E001216F4A1170BF
:1032D00004E005216D4A117000E000BF00BF704797
:1032E0006B49086070476449096A0143624A116288
:1032F0007047674944390860704730B500210022A3
:10330000002400235C4D6D6805F00C0121B10429F7
:1033100005D0082923D105E05E4D056022E05D4D12
:1033200005601FE0544D6D6805F47012524D6D68D4
:1033300005F48034022505EB92421CB9564D5543E5
:1033400005600BE04C4D6D6815F4003F03D0524D05
:103350005543056002E04F4D5543056002E04D4D79
:10336000056000BF00BF444D6D6805F0F00109091C
:103370004A4D6B5C0568DD4045603F4D6D6805F466
:10338000E061090A454D6B5C4568DD4085603A4D5A
:103390006D6805F46051C90A404D6B5C4568DD40BD
:1033A000C560354D6D6805F44041890B3C4D6B5C43
:1033B000C568B5FBF3F5056130BD29B12E4A5269E8
:1033C00002432D4B5A6104E02B4A526982432A4B37
:1033D0005A61704729B1284A92690243264B9A6183
:1033E00004E0254A92698243234B9A61704729B1D0
:1033F000214AD2690243204BDA6104E01E4AD269B5
:1034000082431D4BDA61704729B11B4AD2680243DF
:10341000194BDA6004E0184AD2688243164BDA602E
:10342000704729B1144A12690243134B1A6104E030
:10343000114A12698243104B1A617047144940398E
:10344000086070470F49C86470470B49C8717047DE
:103450000948406A40F08070074948627047014659
:103460000020054A92680A4201D0012000E00020B5
:103470007047014988727047001002400000FFF851
:10348000FFFFF6FE00004242D800424220100240F8
:103490008004424200127A0000093D005D000020D5
:1034A0006D0000200CB50020019000904848006895
:1034B00040F480304649086000BF4548006800F489
:1034C000003000900198401C0190009818B90198B4
:1034D000B0F5A06FF1D13E48006810F4003F02D073
:1034E0000120009001E0002000900098012843D1C5
:1034F0003848006840F01000364908600846006807
:1035000020F0030008600846006840F002000860F0
:103510002F4840682E494860084640684860084681
:10352000406840F4806048600846406820F47C10A1
:1035300048600846406840F4E81048600846006863
:1035400040F08070086000BF2148006810F0007FE4
:10355000FAD01F48406820F003001D494860084623
:10356000406840F00200486000BF1948406800F021
:103570000C000828F9D101E000BFFEE70CBD10B532
:10358000FFF790FF10BD10B51148006840F0010032
:103590000F490860084640680F4908400C494860D8
:1035A000084600680D490840094908600846006857
:1035B00020F4802008600846406820F4FE0048603F
:1035C0004FF41F008860FFF7DAFF10BD704700005E
:1035D00000100240002002400000FFF8FFFFF6FE4E
:1035E0000648804706480047FEE7FEE7FEE7FEE79D
:1035F000FEE7FEE7FEE7FEE7FEE7FEE787350008A9
:10360000310100082DE9F05F0546002092469B46F7
:1036100088460646814640241BE0284641464746E8
:10362000224600F042F853465A46C01A914110D340
:1036300011461846224600F029F82D1A67EB0108BA
:103640004F4622460120002100F020F817EB000928
:103650004E41201EA4F10104DFDC484631462A46D3
:103660004346BDE8F09F0000064C074D06E0E068C9
:1036700040F0010394E8070098471034AC42F6D3B9
:10368000FCF75AFD6C3B00088C3B0008202A04DB49
:10369000203A00FA02F1002070479140C2F1200365
:1036A00020FA03F3194390407047202A04DB203AA4
:1036B00021FA02F00021704721FA02F3D040C2F152
:1036C0002002914008431946704700000FB4054B93
:1036D00010B503A9044A029800F018F810BC5DF870
:1036E00014FB0000450100087800002002E008C833
:1036F000121F08C1002AFAD170477047002001E06C
:1037000001C1121F002AFBD1704700002DE9FF4FB5
:103710008DB00F4605460026DEE1252874D1002431
:103720006D1CF149A246A14601222B78203B02FAEA
:1037300003F0084202D004436D1CF6E728782A28DB
:1037400010D06FF02F022878A0F13001092915D888
:103750000AEB8A0102EB410144F0020400EB010A8A
:103760006D1CF0E757F804ABBAF1000F03DA44F42C
:103770000054CAF1000A44F002046D1C28782E2877
:1037800017D115F8010F44F004042A280ED06FF069
:103790002F022878A0F1300109290AD809EB890104
:1037A00002EB410100EB01096D1CF2E757F8049BA5
:1037B0006D1C28786C280FD006DC4C2817D06828A0
:1037C0000DD06A2814D104E0742810D07A280FD1C3
:1037D0000DE044F400140AE044F4801401E044F4E1
:1037E00040146978814202D16D1C04F580146D1C6F
:1037F0002A786E2A20D00DDC632A33D005DC002A1B
:103800006FD0582A12D1A2E011E0642A6AD0692A46
:103810000CD167E0732A2FD004DC6F2A6FD0702A96
:1038200004D199E0752A6BD0782A6AD01046DDE978
:103830000F129047761C4EE1C4F30250022806D0C6
:1038400003280AD0042801CF0AD0066043E101CF43
:103850004FEAE671C0E900613DE101CF06803AE13F
:10386000067038E117F8040B8DF8000000208DF881
:103870000100EB46012003E057F804BB4FF0FF3096
:1038800061074FF0000102D40DE008F10101884604
:1038900049450FDA8045F8DB1BF808100029F4D100
:1038A00008E008F1010188468142FADB1BF80810A4
:1038B0000029F6D1DDE90F23AAEB08008146214655
:1038C00000F03BF9304400EB080604E0DDE90F129C
:1038D0001BF8010B9047B8F10108F7D22146484682
:1038E000F4E0FDE00A21C4F302534FF0000B08910D
:1038F000022B07D001CFC117032B09D00AE034E017
:1039000023E024E0FF1D27F00707F7E8020105E0A8
:1039100000B2C117042B01D140B2C117002907DA48
:103920004FF0000CD0EB0C006CEB01012D2302E0FA
:10393000230504D52B238DF82430012303E0E3076E
:1039400001D02023F7E7984650E00A210EE010202E
:103950004FF0000B08900CE010214FF0000B44F0EA
:1039600004044FF00809089103E008214FF0000B10
:103970000891C4F30253022B04D001CF0021032B82
:1039800006D006E0FF1D27F00707F7E8020103E075
:1039900080B2042B00D1C0B24FF00008230725D518
:1039A000702A2AD0DDF820C08CF0100C5CEA0B0CD9
:1039B00009D150EA010306D030238DF824308DF868
:1039C000252002239846DDF820C08CF0080C5CEA24
:1039D0000B0C0BD150EA010301D1630706D530234C
:1039E0008DF824304FF00108A9F10109582A09D0B7
:1039F0003EA20B9208AA0A9211E040238DF82430CF
:103A00000123DFE73EA2F4E75B46089AFFF7FAFDE1
:103A10000B9B9B5C0A9AA2F101020A92137050EA76
:103A20000102F1D10A98ADEB000000F1200B600714
:103A300002D524F4803401E04FF00109D94502DDBC
:103A4000A9EB0B0000E0002000EB0B0141440890C3
:103A5000AAEB010AE00306D4DDE90F232146504614
:103A600000F06BF80644002008E009A911F80900ED
:103A7000DDE90F129047761C09F1010081464045AF
:103A8000F3DBE0030CD5DDE90F232146504600F0BF
:103A900054F8064404E0DDE90F1230209047761C0C
:103AA0000899481E08900029F5DC08E00A980A9950
:103AB0000078491C0A91DDE90F129047761CBBF192
:103AC0000001ABF1010BF1DC21465046DDE90F238B
:103AD00000F020F806446D1C287800287FF41DAE05
:103AE00011B03046BDE8F08F092801003031323383
:103AF000343536373839616263646566000000002A
:103B00003031323334353637383941424344454613
:103B1000000000002DE9F041044600251E4617462E
:103B2000880405D406E039462020B04705F1010598
:103B3000641EF8D52846BDE8F0812DE9F041044621
:103B400000251E469046C80301D5302700E02027F7
:103B5000880405D506E041463846B04705F1010521
:103B6000641EF8D52846BDE8F08100008C3B0008B3
:103B7000000000207C000000EC360008083C000833
:103B80007C00002034040000FC3600080000000027
:103B900004080C1014181C20240000000000000071
:103BA0000000000000000000000000000000000015
:103BB0000000000000000000000000000000000005
:103BC00000000000000000000000000000000000F5
:103BD00000000000000000000000000000000000E5
:103BE00000000000000000000000000000010203CF
:103BF0000401020304060708090204060800000085
:083C000000A24A0400000000CC
:04000005080035E1D9
:00000001FF
